:020000040000FA
:10000000010A0C0936000D09370074007500640000
:0C001000190B1D0AC20A6B0A0608000842
:10003A00400C3C007D001C02140134001D02150115
:10004A0035002605B20C29008F0C2800130C270056
:10005A00E7022D0AE8022D0AE9022D0AA607360A46
:10006A00370A5D0ABF0C3C007D001C0254013400B3
:10007A001D0255013500200C3C007D001C021401B4
:10008A0034001D0215013500260403045603360008
:10009A0057033700330C2900BB0C2800DF0C27005C
:1000AA00E702550AE802550AE902550A5C0A6A0A91
:1000BA00060C3600000C3700DF0C3C007D001C02E9
:1000CA00540134001D02550135000008670068001C
:1000DA0008023F0007023E001F02800F3C00800C0E
:1000EA009C0043077A0A230C9E0003067D0A7E0AB7
:1000FA00800A0605810A0604010C3C007D001C02E8
:10010A00E7010306A8021D02E80108023F000702F0
:10011A003E001F02800F3C00800C9C004307970A98
:10012A00320C9E0003079A0A9B0A6D0A320C2900B8
:10013A00000C2A000A023F0009023E001F02800F3B
:10014A003C00800C9C004307AC0A230C9E0003066B
:10015A00AF0AB00AB20A0605B30A0604FF0C3C004D
:10016A00FF0C3D001C02E9010306AA021D02EA0176
:10017A00EA07C00AC10A9F0A000867006800080265
:10018A003F0007023E001F02800F3C00800C9C00CB
:10019A004307D10A140C9E000306D40AD50AD70ACB
:1001AA000605D80A0604010C3C007D001C02E70182
:1001BA000306A8021D02E80108023F0007023E00EA
:1001CA001F02800F3C00800C9C004307EE0A320C91
:1001DA009E000307F10AF20AC40A320C2900000C35
:1001EA002A000A023F0009023E001F02800F3C005B
:1001FA00800C9C004307030B140C9E000306060B9D
:10020A00070B090B06050A0B0604FF0C3C00FF0C42
:10021A003D001C02E9010306AA021D02EA01EA07DF
:10022A00170B180BF60A00083C0C0600C00C02005B
:10023A0026046607210B220B2B0B4606250B260BE1
:10024A002B0B9606290B2A0B2B0B090986062E0B5C
:10025A002F0B420BBF0C3C007D001C0254013400E2
:10026A001D02550135002604820C2C00DD0C2B00E2
:10027A00EB023D0BEC023D0B420BD407450B460B40
:10028A006B0BA607490B4A0B6B0BBF0C3C007D009E
:10029A001C02540134001D0255013500200C3C009B
:1002AA007D001C02140134001D02150135002604CC
:1002BA00060C2D00130C2C00AD0C2B00EB02630B6B
:1002CA00EC02630BED02630B6A0B090946076E0B1E
:1002DA006F0B830B800C3C007D001C021401340060
:1002EA001D0215013500BF0C3C007D001C025401A3
:1002FA0034001D025501350026048C0B7F0C3C008E
:10030A007D001C02540134001D0255013500960778
:10031A008F0B900BD30B6E006F000A09010C3C0087
:10032A007D001C02EE010306AF021D02EF010F025F
:10033A003F000E023E001F02800F3C00800C9C0012
:10034A004307A90B640C9E000307AC0BAD0B920B81
:10035A00820C2C00DD0C2B00EB02B10BEC02B10B72
:10036A00B60B700071000B09010C3C007D001C02E9
:10037A00F0010306B1021D02F10111023F00100251
:10038A003E001F02800F3C00800C9C004307CF0BED
:10039A00FA0C9E000307D20BD30BB80BF407D60B4B
:1003AA00D70B1E0B720073000A09010C3C007D007A
:1003BA001C02F2010306B3021D02F30113023F00FD
:1003CA0012023E001F02800F3C00800C9C00430773
:1003DA00F00B640C9E000307F30BF40BD90B820C91
:1003EA002C00DD0C2B00EB02F80BEC02F80BFD0BDA
:0403FA001E0B000ACC
:021FFE00EA0FE8
:00000001FF
