:020000040000FA
:0A00000064002500030A6400B20B3F
:10036400380C0600070C02000D0C2800FB0C2700BB
:10037400E702BA0BE802BA0BBF0B6606C20BC30B4B
:10038400EA0B060546052604100C2900390C280042
:100394000D0C2700E702CC0BE802CC0BE902CC0BD6
:1003A400D30B6607D60BD70BE50B46042605020CC8
:1003B4002900860C2800990C2700E702DF0BE802CD
:1003C400DF0BE902DF0B4604260406040300B60B28
:1003D400060546042605020C2900860C2800990C03
:1003E4002700E702F30BE802F30BE902F30B4604E0
:0A03F400260406040300B60B020AFB
:021FFE00EA0FE8
:00000001FF
