:100000000C9434000C9449000C9449000C94490061
:100010000C9449000C9449000C9449000C9449003C
:100020000C9449000C9449000C9449000C9449002C
:100030000C9449000C9449000C9449000C9449001C
:100040000C9449000C9449000C9449000C9449000C
:100050000C9449000C9449000C9449000C944900FC
:100060000C9449000C94490011241FBECFEFD8E036
:10007000DEBFCDBF11E0A0E0B1E0EAEAF2E002C0ED
:1000800005900D92A431B107D9F70E944B000C9452
:1000900053010C9400003F924F925F926F927F92B7
:1000A0008F929F92AF92BF92CF92DF92EF92FF9288
:1000B0000F931F93DF93CF93CDB7DEB763970FB640
:1000C000F894DEBF0FBECDBFDE011196E0E0F1E097
:1000D00083E101900D928150E1F71092C50088E014
:1000E0008093C40086E08093C20088E18093C100C1
:1000F000A0ECB0E066EC70E00F2EFFE6BF2EF02D16
:1001000008EE13E040E951E00F2EF3E8AF2EF02D9A
:100110000F2EF7E99F2EF02D0F2EFAE08F2EF02DE7
:100120000F2EFDE07F2EF02D44245524689441F8D5
:100130004C0E5D1E0F2EF4E2EF2EFF24F02D0F2E3D
:10014000F5E2CF2EDD24F02D8C9185FFFDCFFB0154
:10015000B0829801CA010197F1F721503040D1F7E0
:100160008C918823ECF7FB013080F1E43F1629F0F5
:1001700082E4381661F0980113C0F7018081806233
:100180008083F601808180628083980109C0F70135
:10019000808180628083F60180818F7D80839801D9
:1001A000CA010197F1F721503040D1F78C9185FFBA
:1001B000FDCFFB01A0829801CA010197F1F7215000
:1001C0003040D1F78C918823ECF7FB016080F1E49B
:1001D0006F1629F082E4681661F0980113C0F701E8
:1001E000808180618083F6018081806180839801B5
:1001F00009C0F701808180618083F60180818F7E54
:1002000080839801CA010197F1F721503040D1F75E
:100210008C9185FFFDCFFB0190829801CA01019767
:10022000F1F721503040D1F78C918823ECF7FB0196
:1002300080813E826C868A8B813419F0823449F445
:100240000CC0F701808188608083F601808188601E
:1002500080839981992351F414C0F70180818860CB
:100260008083F6018081877F8083F3CF92018C9118
:1002700085FFFDCFFB019083F90191919F019923A7
:10028000B1F78C9185FFFDCFFB0180828C9185FFBA
:10029000FDCFFB0170829801CA010197F1F721504F
:0A02A0003040D1F751CFF894FFCFA2
:1002AA0054414E4B312054414E4B322054414E4B17
:0402BA0033200000ED
:00000001FF
