:020000040000FA
:020000003228A4
:100008007E1480318B1E09280A2812280B1D0D2802
:100018000E28122881311821803130288B1D15288F
:1000280016281E280B1C19281A281E288031832000
:10003800803130280B1F2128222830282100111C4C
:100048002628272830282000111C2B282C28302867
:100058008031F120803130287E10090033287E104D
:100068002000B12922008C018E013F3021008C0034
:1000780027308E00033023008E0004308C002400CB
:100088008C012100951722009D0127001310931061
:1000980093111312931212149214921512169216A7
:1000A80011149114911511169116C0302000A80052
:1000B8000130A9008131A5218031BF302000A8007E
:1000C8000130A90081319F218031BE302000A80075
:1000D8000130A900813199218031BD302000A8006C
:1000E8000130A900813193218031BC302000A80063
:1000F8000130A90081318D2180318B15080027003E
:10010800131C872888288B28813162218031270099
:10011800931C8F28902893288131542180312700FF
:10012800931D972898289B288131462180312700E4
:10013800131E9F28A028A32881313721803127004A
:10014800931EA728A828AB288131282180310800D0
:1001580020009901FC30970087309600111017088D
:10016800F1001608F00021001114BA302000A80090
:100178000130A900813181218031013020009800AF
:1001880008008031362080318131AB2180318131C6
:10019800B6218031813179218031813170218031DE
:1001A8008031AC2080318031DB2080310800210093
:1001B8001508C039163895003D30200095003D30AF
:1001C800FB007B08F8000B118B16BB30A800013030
:1001D800A9008131872180310800200011107108A1
:1001E800FA007008F90081310721803120002208C7
:1001F8002304031900290129062923088A00220853
:100208000A00813108002000181D0B290C29132928
:1002180018107A08970079089600181417297A0890
:1002280097007908960008000B11780820009500BF
:1002380020082104031921292229272921088A00B5
:1002480020080A0081310800200024082504031929
:100258002E292F29342925088A0024080A008131EB
:1002680027009312080020002608270403193D29B7
:100278003E29432927088A0026080A0081312700D9
:10028800131208007208730403194B294C295129C9
:1002980073088A0072080A00813127009311080048
:1002A80074087504031959295A295F2975088A00A1
:1002B80074080A0081312700931008007608770433
:1002C8000319672968296D2977088A0076080A00C2
:1002D80081312700131008001B3020009B000130DB
:1002E8009A00911004309C000800C0302C00960041
:1002F8000630950080309400080020002908A300EB
:100308002808A200080020002908A1002808A00049
:10031800080020002908A5002808A40008002000DB
:100328002908A7002808A600080020002908F300CB
:100338002808F200080020002908F5002808F40021
:10034800080020002908F7002808F600080068308F
:10035800210099002200960108008031C5208131D2
:10036800B429322816302100970008000800080038
:0A0378000800080008000800080053
:020000040001F9
:04000E00A439FF1FF3
:00000001FF
